S01B000050726F796563746F5F496E7465677261646F722E7372656346
S31500000000E826FE1F054F0000BD490000014F000015
S31500000010014F0000014F0000014F000000000000EA
S31500000020000000000000000000000000014F00007A
S31500000030014F000000000000355F0000E95F00008E
S3150000004005130000D11100009112000015110000E7
S31500000050FFFFFFFFFFFFFFFFFFFFFFFFFFFFFFFFAA
S31500000060FFFFFFFFFFFFFFFFFFFFFFFFFFFFFFFF9A
S31500000070FFFFFFFFFFFFFFFFFFFFFFFFFFFFFFFF8A
S31500000080FFFFFFFFFFFFFFFFFFFFFFFFFFFFFFFF7A
S31500000400FFFFFFFFFFFDFFFFFFFFFFFFFFFFFFFFF8
S31500000410FFFFFFFFFFFFFFFFFFFFFFFFFFFFFFFFE6
S31500000420FFFFFFFFFFFFFFFFFFFFFFFFFFFFFFFFD6
S31500000430FFFFFFFFFFFFFFFFFFFFFFFFFFFFFFFFC6
S31500000440FFFFFFFFFFFFFFFFFFFFFFFFFFFFFFFFB6
S31500000450FFFFFFFFFFFFFFFFFFFFFFFFFFFFFFFFA6
S31500000460FFFFFFFFFFFFFFFFFFFFFFFFFFFFFFFF96
S31500000470FFFFFFFFFFFFFFFFFFFFFFFFFFFFFFFF86
S31500000480FFFFFFFFFFFFFFFFFFFFFFFFFFFFFFFF76
S31500000490FFFFFFFFFFFFFFFFFFFFFFFFFFFFFFFF66
S315000004A0FFFFFFFFFFFFFFFFFFFFFFFFFFFFFFFF56
S315000004B0FFFFFFFFFFFFFFFFFFFFFFFFFFFFFFFF46
S315000004C0FFFFFFFFFFFFFFFFFFFFFFFFFFFFFFFF36
S315000004D0FFFFFFFFFFFFFFFFFFFFFFFFFFFFFFFF26
S315000004E0FFFFFFFFFFFFFFFFFFFFFFFFFFFFFFFF16
S315000004F0FFFFFFFFFFFFFFFFFFFFFFFFFFFFFFFF06
S315000005001C03FE1F770114082003FE1F740114103C
S315000005102403FE1F760114202803FE1F75011428EC
S3150000052020000000200001002F0000002F00010025
S315000005300C00010011000000300000003000010036
S31500000540240000002400010024000200240003000F
S31500000550240004002400050013000000170000001A
S315000005602300000021000000210001000700000018
S31500000570070001000700020007000300070004004F
S31500000580070005000700060007000700120000002C
S3150000059044000000080000000B00000041000000BD
S315000005A0400000004000010004000000430000007D
S315000005B02B0000002B000A002B000B002B000C0068
S315000005C02B000D002B0001002B0002002B00030066
S315000005D02B0004002B0005002B0006002B00070053
S315000005E02B0008002B0009000600000006000A0088
S315000005F006000B0006000C0006000D0006000E00AB
S3150000060006000F00060001000600020006000300B7
S3150000061006000400060005000600060006000700A6
S31500000620060008000600090015000000150001007C
S3150000063015000200310000002A00000045000000FD
S315000006401000000003010000030000000300010089
S315000006500F0000000D0000002D0000004200000009
S315000006602C0000002C0001002C0002002C000300CE
S3150000067032000000280000001800000014000000EE
S31500000680140001001400020014000300140004000A
S3150000069014000500140006001400070014000800EA
S315000006A014000900340000003400010016000000A8
S315000006B0160001003500000036000000360001007B
S315000006C02200000033000000330100002900000072
S315000006D010B5054C237833B9044B13B10448AFF376
S315000006E000800123237010BD9002FE1F0000000051
S315000006F0F86E000008B5034B1BB103490348AFF37E
S31500000700008008BD000000009402FE1FF86E000085
S3150000071020B1034B1B68036000207047012070471F
S31500000720946300002DE9F04F00F1380983B00446C8
S3150000073048468B46924698469DF8307004F0E0FA9B
S3150000074000287FD1A569AB78064666F3861394F92F
S315000007501E00AB70AB7866F3C713AB70AB780122A3
S3150000076066F38203AB7084F835206B7BC4F8308067
S3150000077007EA020166F3041384F83610C4E90A6630
S31500000780C4E908BA84F837706B73019204F08CFAE6
S3150000079094F91D0004F088FA94F91C0004F084FA18
S315000007A094F91F0004F080FAB8F5803F019A41D20F
S315000007B0A368002B4BD0A26999681868022F02F132
S315000007C0030A04BF3D4A226294F834200CBFB346A4
S315000007D04FF0020B5A4566D0CB689847002860D187
S315000007E0A1684B681B68DA786BF38302DA70886855
S315000007F0226A5A601FFA88F2DA818268C3F808A072
S315000008000868904784F834B000284AD1E36803BBEF
S31500000810012FA3682AD1AA7842F08002AA70AA788A
S3150000082042F02002AA70002B37D06B79304603B015
S31500000830BDE8F08F1646484604F072FA304603B01B
S31500000840BDE8F08F0A26304603B0BDE8F08FE368B6
S31500000850CBB1012F2FD09A68A16918685768626AD0
S315000008601FFA88F30531B847D8B9A368AA7842F0C9
S315000008704002AA70AA7842F08002AA70AA7842F0D2
S315000008803002AA70CFE7012FF0D1AB7843F0800396
S31500000890AB70AB7843F02003AB70E368002BC4D198
S315000008A0CCE70646C7E7D1F804B0216A52461FFADC
S315000008B088F3D847A8E7A368ADE700BF90630000B8
S315000008C0F0B49DF8104008B1012C02D00120F0BC14
S315000008D07047002BFAD00029F8D0002AF6D04568D8
S315000008E0044CA54201D00720F1E703240494F0BC90
S315000008F0FFF718BF5349435308B1012B01D001201C
S315000009007047002AFBD030B583B031B14568074C3B
S31500000910A54204D0072003B030BD1846FBE71C46AD
S31500000920009413460022FFF7FDFEF4E753494353B4
S3150000093008B1012B01D001207047002AFBD0002905
S31500000940F9D010B5074B44689C4282B002D007200C
S3150000095002B010BD13460A46022100910021FFF79E
S31500000960E1FEF5E753494353002800F08380424BEC
S3150000097042689A427CD183699A78002161F3861293
S3150000098030B590F91D4041609A709A7861F3C712AC
S315000009909A709A788C4261F3820283B09A700DDB6A
S315000009A0630920330122354904F01F0402FA04F4D6
S315000009B041F82340BFF34F8FBFF36F8F90F91C3080
S315000009C0002B0DDB5A09203201212C4C03F01F03AA
S315000009D001FA03F344F82230BFF34F8FBFF36F8F52
S315000009E090F91F30002B0DDB5A0920320121234CD0
S315000009F003F01F0301FA03F344F82230BFF34F8FCD
S31500000A00BFF36F8F90F91E30002B0DDB5A09203291
S31500000A1001211A4C03F01F0301FA03F344F82230B4
S31500000A20BFF34F8FBFF36F8F02AC00221423ADF8D4
S31500000A30042004F8043D05460378ADF80630204648
S31500000A4004F0F4F8EB681BB19A681868D369984704
S31500000A50AB681BB19A681868D369984705F13800E6
S31500000A6004F05EF9204604F093F9002003B030BD8F
S31500000A7007207047012070475349435300E100E0C7
S31500000A802DE9F04F93B0002940D000283ED00B78D6
S31500000A90DFF8C493ADF81A304FF0140A0023ADF80E
S31500000AA018300C460546D9F80C708DF818A0CDE91B
S31500000AB00933CDE90B3309A906A8B847064618B18C
S31500000AC0304613B0BDE8F08F06A804F02DF90646AF
S31500000AD008BB01463C22284605F016FCDDF82480BA
S31500000AE0C5F818802378ADF81C600D96CDE90E6622
S31500000AF010968DF81CA0ADF81E300DA907A8B847B2
S31500000B00064668B106A804F043F9D9E7012630463F
S31500000B1013B0BDE8F08F0A26304613B0BDE8F08F5B
S31500000B2012AAD9F8103042F8280D022107A801921E
S31500000B301F4694F801A098479DF920202A7706467B
S31500000B400028DFD14FEA0A1A002A5FFA8AFAC0F2B1
S31500000B50918202F1604303F5614383F800A3BA4B27
S31500000B60D3F800B05BF832200021156007A8019A7F
S31500000B700891052194F802A0B8479DF920206A77CC
S31500000B8006460028BED14FEA0A11002AC9B2C0F2B1
S31500000B90A58202F1604000F5614080F800135BF821
S31500000BA032200021156007A8019A0891042194F8C3
S31500000BB003A0B8479DF92020AA7706460028A1D1B0
S31500000BC04FEA0A11002AC9B2C0F2908202F16040CF
S31500000BD000F5614080F800135BF8321000220D60CA
S31500000BE007A808920121019A94F804A0B8479DF934
S31500000BF02020EA770646002884D14FEA0A11002A07
S31500000C00C9B2C0F2798202F1604000F5614080F815
S31500000C1000135BF8323006A81D6094F800A004F0BB
S31500000C2009F80023FF22F22188F800304FF47840BB
S31500000C3088F8023088F8043088F8061088F8012011
S31500000C40402188F81220032288F8073088F80830F7
S31500000C5088F8093088F80A3088F80B3088F80C30A4
S31500000C6088F80D3088F80C30A8F81400A8F81A3067
S31500000C7088F8131088F81C2098F8022095F91D00B2
S31500000C8063F3861288F8022098F8022063F3C712ED
S31500000C9088F8022098F8022063F3820288F802207E
S31500000CA004F002F895F91C0003F0FEFF95F91F0009
S31500000CB003F0FAFF95F91E0003F0F6FF95F91D0003
S31500000CC0002808DB4309603300F01F0601225F4954
S31500000CD0B24041F8232095F91C10002909DB4B0985
S31500000CE0603301F01F0C0122584E02FA0CF246F84E
S31500000CF0232095F91F20002A0ADB5309603302F0EE
S31500000D001F0E0126DFF844C106FA0EF64CF82360E2
S31500000D1095F91E30002B0BDB5E09603603F01F0BC6
S31500000D204FF0010CDFF824E10CFA0BFC4EF826C05C
S31500000D30002809DB00F01F0E01264009DFF80CC170
S31500000D4006FA0EF64CF82060002908DB01F01F0CAD
S31500000D50012049093D4E00FA0CF046F82100002A10
S31500000D6007DB02F01F06012152093848B14040F85E
S31500000D702210002B07DB03F01F0001225B09334919
S31500000D80824041F82320B8F814306FF30003A8F826
S31500000D90143098F80630226A6FF3000388F806309C
S31500000DA098F809306FF3000388F8093098F8003096
S31500000DB043F0800388F8003098F80D306FF3000395
S31500000DC088F80D30A2B3137893B398F8073043F040
S31500000DD0040388F80730019FD4F80CB00023384686
S31500000DE08DF817300D938DF8203003F0ABFD184BBE
S31500000DF09DF820009B690DA998470646F8B9BBF1F6
S31500000E00000F1CD00D991348042332460BFB03F345
S31500000E10B1FBF3F303F1FF3CBCF1FE0F40F2478157
S31500000E200132042A02EB420318D030F81330EDE702
S31500000E3098F807306FF3820388F80730CBE706A8E7
S31500000E4003F0A6FF01263BE6506A000000E100E041
S31500000E501C650000B063000094640000019798F8D8
S31500000E6007305B07EBD54FF4807301200022079211
S31500000E709DF81720DFF898C202EB420E4FEA0B22CC
S31500000E803CF81EC002FB0CF203FB02F3B3FBF1F1CC
S31500000E900791079B7F2B07D9079BB3F5807F03D864
S31500000EA0079BDBB288F812300028C8D1D4E9043198
S31500000EB0081CB3FA83F24FEA521218BF012090427F
S31500000EC000F0F380002950D08B68002B00F0D08012
S31500000ED00B68002B00F0CC804B68002B00F0C8801C
S31500000EE01A681746002A00F0C38092F802E0D9F883
S31500000EF0101092F803B0039102209C4660F3830E13
S31500000F00BCE80F006FF3451E0BF0330B87F802E0C9
S31500000F106FF3051B0DF1340E87F803B0AEE80F0032
S31500000F204FF0000BDCF80030CEF800300221039BB6
S31500000F30CDF820B0019A029706A898479DF920306F
S31500000F40213300F095806369BDF822109A6818680D
S31500000F5012688DF83AB0ADF83810CDF83CB00DA94E
S31500000F609047002840F0C0802369002B4ED09A6835
S31500000F70002A00F093801A68002A00F08F805B68D0
S31500000F80002B00F08B80D3F800E0BEF1000F00F0DC
S31500000F9085809C469EF80330D9F810709EF802B002
S31500000FA003F03F09022363F38309BCE80F000BF04B
S31500000FB0F30B6FF305196FF3451B8EF803908EF84C
S31500000FC002B00DF1340EAEE80F004FF00009DCF868
S31500000FD00030CEF80030019ACDF82090052106A801
S31500000FE0B8479DF92030213358D02369BDF82270C7
S31500000FF09A68186812688DF83A90CDF83C900DA959
S31500001000ADF83870904700287CD123696279A179C0
S31500001010E779207A012A98F8022037D06FF3010287
S3150000102088F80220002208B942F01002012928D0CF
S3150000103029B9012F14BF42F0800242F0C002617A42
S3150000104088F80D2029B998F8062042F0080288F899
S315000010500620D4E9061085F800A064692A4A2961A9
S315000010600221EC606861AB6085F834106A6027E5A0
S31500001070012647E5254B02F00F010B4483F818A023
S315000010806DE5002FDBD142F04002D8E74FF0020CAD
S315000010906CF3010288F802200522C4E70126636981
S315000010A09A681868D36998472CE503262AE5D2B2D0
S315000010B08DF817205FFA8CFC9DF8170088F801C0A0
S315000010C098F80020019760F3010288F8002098F84C
S315000010D0072052077FF5EAAE0020C7E60B4802F06C
S315000010E00F06304401765AE506460BE5074802F03E
S315000010F00F06304401766FE5044802F00F063044CF
S31500001100017686E50646CAE753494353FCEC00E000
S31500001110B063000030B5012083B004F0C7FAEFF3E6
S315000011200383A3F1100464B22046019303F0BCFDCF
S31500001130264B1B6853F834301B68DA688AB19A6903
S31500001140196B9962917893F837000B466FF3C713C2
S315000011500128937026D0012003B0BDE8304004F08A
S31500001160A3BA99689A690029EAD1507B996A40071F
S3150000117028D493F83700012803D090786FF3C7106E
S3150000118090701C6B8C420AD993F83600A0B1186A8D
S31500001190455C1079C009FCD0D570013199628C424A
S315000011A0D9D1CFE79378012043F00403937003B0BD
S315000011B0BDE8304004F078BA1079C009FCD0FF20B1
S315000011C0D070EAE70029DCD0D3E700BF506A000000
S315000011D070B5012084B004F069FAEFF30383A3F13C
S315000011E0100464B22046019303F05EFD274B1B6892
S315000011F053F834301C68E36813B3A369226BE262C8
S315000012009A7821696FF386129A709A786FF3C712EB
S315000012109A709A7802F0CF029A7041B12278636987
S31500001220019201228DF80820039301A8884704F152
S31500001230380003F075FD012004F036FA04B070BDE5
S31500001240A268A369002AD9D1616AE26A5B798B54E4
S31500001250D4E90A13256B0133A942E36211D294F84B
S315000012603600A26930B1206A465C1079C009FCD00C
S31500001270D67004E01079C009FCD0FF20D07001318F
S31500001280A162AB42D7D1A369BAE700BF506A00009A
S3150000129030B5012085B004F009FAEFF30384184B4A
S315000012A00194103C64B21B6853F834301D68AB6976
S315000012B029699A786FF386129A709A786FF3C71233
S315000012C09A709A786FF382029A709A7802F0CF0237
S315000012D09A7041B12A786B69019201228DF8082033
S315000012E0039301A8884705F1380003F019FD20464D
S315000012F003F0DAFC012004F0D7F905B030BD00BFD9
S31500001300506A000030B5012085B004F0CFF9EFF344
S3150000131003831C4A0193103B5BB2126852F83330C8
S315000013201C682369A56963B1227801922A7992061D
S315000013304CBF062202228DF808206269039201A89A
S31500001340984704F1380003F0EBFC2B7903F0C70350
S315000013502B71EFF30383A3F1100040B2009303F067
S31500001360A3FCEFF30382A2F110035BB206490092DD
S31500001370C033012051F823300093009B04F094F908
S3150000138005B030BD506A000000600040114A136885
S3150000139070B4040A9C4216D25668C0B200F1100519
S315000013A0012356F8246003FA05F535420BD069B1DE
S315000013B000EB0410936853F82030C3F34003002079
S315000013C00B7070BC7047032070BC7047184670BC29
S315000013D0704700BF5802FE1F084B1A68000A904269
S315000013E007D241B1DA684301043200209B580B80D2
S315000013F07047032070470120704700BF5802FE1F48
S31500001400084B1A68000A904208D249B1DA684301CB
S31500001410043200209B581B0C0B807047032070473A
S31500001420012070475802FE1F70B4134C2268030A4D
S3150000143093421BD26668C0B200F11005012256F82D
S31500001440236002FA05F5354210D091B1E4685B01DC
S31500001450043402FA00F01C5983B233EA144313BF72
S31500001460002000200A70087070BC7047032070BC12
S315000014707047104670BC70475802FE1F0C4B10B4E4
S315000014801C68000AA0420ED26AB1DB685DF8044B04
S31500001490083303EB401022EA01030A4042EA034202
S315000014A042600020704703205DF8044B704700BF80
S315000014B05802FE1F70B4134C2368020A9A421DD2CA
S315000014C06668C0B200F11005012356F8226003FADF
S315000014D005F5354212D0994210D8E16803FA00F0BA
S315000014E001F1080183B201EB42121ABF0004002386
S315000014F000201843506070BC00207047032070BC69
S31500001500704700BF5802FE1F18B1034B036000204E
S3150000151070470120704700BF04010201012959D814
S315000015202D4BF0B41C68020AA24250D25D68C0B2CC
S3150000153000F11006012455F82250B4402C4246D042
S3150000154000EB02109C681D6954F82030234E0129D7
S315000015500CBF43F0010123F001010E40EFF31087A9
S31500001560012383F310881E4B1A8892B222B94FF0DA
S31500001570400CEA7085F803C01A88013292B21A80CC
S3150000158087F31088CF0354F8202007D5154F22F48F
S3150000159080320F4044F8202044F8207044F8206040
S315000015A0EFF31081012282F310881A8892B21AB1E1
S315000015B01A88013A92B21A801B889BB213B980220C
S315000015C0EB70EA7081F310880020F0BC70470320AE
S315000015D0F0BC7047032070475802FE1FD5FC011F60
S315000015E0AC02FE1FD5FC001FB2B10C4B10B41C6838
S315000015F0000AA0420CD2DB6822EA0104400108334B
S315000016000A4042EA0442C2505DF8044B002070478B
S3150000161003205DF8044B7047032070475802FE1FF5
S31500001620D2B10E4B70B41C68000AA04211D2DD681C
S31500001630400102EA01032E582C58334361EA0202A4
S315000016409BB2210C1A4009040A432A50002070BCA0
S315000016507047032070BC7047032070475802FE1F76
S31500001660F8B500283BD009681E4F4FF0000C01EB7F
S31500001670C00066464FF0010E8D8840F20242954248
S315000016804FF000030BD10C680EFA03F204F0B854C5
S31500001690D2B2B4F1807F0CBF164342EA0C0C013380
S315000016A0032B06D037F813209542ECD00133032BD9
S315000016B0F8D108318142DFD16FEA0C0C5FFA8CF465
S315000016C0012003F0EFFB084B93F8BB24164326409A
S315000016D083F8BB640120BDE8F84003F0B3BB0646BF
S315000016E0FF24EDE70464000000E0014070B582B01D
S315000016F002AB002403F8044D054618460E4603F0D7
S315000017003DF99DF80430DB0715D5202D10D8012EA4
S315000017100ED80A4B1B691A7813BF154302F0300224
S3150000172022EA050505F0300520461D7002B070BDA1
S31500001730032002B070BD062002B070BD5802FE1F25
S315000017402DE9F0470746011D0088FFF789FF3B8812
S31500001750002B4ED0DFF8A4E0274900224FF0010C01
S315000017604FF0400A4FF080097B68DEF8106053F8AE
S315000017703250DEF8084003EBC2039B88180ADBB23E
S3150000178003EB0013EFF310888CF31088088880B2FF
S3150000179010B9F07086F803A00888013080B208807E
S315000017A088F3108815F4803F54F8230007D020F4FE
S315000017B0803025F4803844F8230044F8238044F828
S315000017C02350EFF310808CF310880B889BB21BB16B
S315000017D00B88013B9BB20B800B889BB213B9F3704D
S315000017E086F8039080F3108801323B8892B29342C8
S315000017F0BAD80020BDE8F087AC02FE1F5802FE1FD3
S3150000180018B143680BB1FFF79BBF0120704700BFBB
S3150000181000283AD04368002B37D02DE9F04186B036
S3150000182006AD00230922019305F8142D184A194C18
S31500001830D2F80C8002930646CDE90333059302A93C
S315000018402846C047029BE3600A22BDF80C308DF89B
S31500001850042002A9059A6260284601272360C04732
S31500001860029B8DF80570284602A9A360C0477368DD
S31500001870029A22612BB13046FFF762FF06B0BDE83F
S31500001880F081384606B0BDE8F0810120704700BF00
S31500001890946400005802FE1F2DE9F0412F4C236886
S315000018A04FEA1028984584B053D26268C5B205F154
S315000018B01003012752F8282007FA03F3134248D0F1
S315000018C00E4604A902AA034641F80C2D3846ADF887
S315000018D00C300296ADF8007005EB0815FFF7C0FE58
S315000018E02169A068EFF3108487F310881C4B1A88CF
S315000018F092B212B94027CA70CF701A88013292B2DA
S315000019001A8084F31088F40350F8252007D522F4B2
S31500001910803226F4803440F8252040F8254040F8EF
S315000019202560EFF31080012282F310881A8892B2A4
S315000019301AB11A88013A92B21A801B889BB213B95F
S315000019408022CB70CA7080F31088002004B0BDE8F6
S31500001950F081032004B0BDE8F08100BF5802FE1FED
S31500001960AC02FE1F012957D82E4BF0B41C68020AA0
S31500001970A2424ED25D68C0B200F11006012455F8AD
S315000019802250B4402C4244D000EB02109C681D69E2
S3150000199054F82030002941D043F00401224E0E4075
S315000019A0EFF31087012383F31088204B1A8892B235
S315000019B022B94FF0400CEA7085F803C01A8801324C
S315000019C092B21A8087F31088CF0354F8202007D5E7
S315000019D0174F22F480320F4044F8202044F820703C
S315000019E044F82060EFF31081012282F310881A88F0
S315000019F092B21AB11A88013A92B21A801B889BB227
S31500001A0013B98022EB70EA7081F310880020F0BCD5
S31500001A1070470320F0BC70470320704723F0040191
S31500001A20BCE700BF5802FE1FD5FC011FAC02FE1F1B
S31500001A30D5FC001F024658B1064B07491B68002B10
S31500001A4008BF0B460020596803EB810313607047FB
S31500001A50012070476C02FE1FF865000078B10A4B42
S31500001A601B6873B15A6800F1100103EB820353F847
S31500001A70042F40F8042B8842F9D10020704701203A
S31500001A8070471C20704700BF6C02FE1F20B1034B3D
S31500001A901B6803600020704701207047AC6400009B
S31500001AA040B33AB3174BF0B51E682EB3164B077802
S31500001AB01B68002404E00134B44203F108031BD080
S31500001AC09D79BD42F7D193F805C04588B5EB9C0FCB
S31500001AD0F1D1DD7990F801C005F0070EE645EAD1AF
S31500001AE0B1EBD50FE7D19B881470C3F3090353807C
S31500001AF00020F0BD01207047DF21FF2311705380C5
S31500001B000B20F0BDF802FE1F506A0000F0B4284C0E
S31500001B10216851B1234604F57F70002201E053F895
S31500001B20041F98420A44FAD11AB100BE1D20F0BC27
S31500001B3070472048204902600B681D0CB5F5807F70
S31500001B4002D00020F0BC70471D68013D0335F8D86F
S31500001B501A4D5E6AAE42F4D103600D686368696827
S31500001B6004EB830305EB8105232001214FF47E4618
S31500001B7002E001320131013826FA02F4E40707D502
S31500001B80072A0FD0082A06D01F5C2C5CA742CCD1AE
S31500001B901029EED1D5E7EC7E372CEAD0DF7EA742BE
S31500001BA0E7D0C2E72F7F1C7FA742E2D2BDE700BF86
S31500001BB0F86500006C02FE1F9CB17F405237465309
S31500001BC0002850D000294ED02DE9F041864D0278EC
S31500001BD0AC6805EB8404A3789A4252D24FEA121CF1
S31500001BE004EB8C0702F00F06B7F8088028FA06FE09
S31500001BF01EF0010F45D0072EBF7A36D8DFF8F0C1A8
S31500001C007A4A1CF8066006EA08061B09925D02334A
S31500001C103A449B0003EB4203E618E25A96F9016048
S31500001C20C2F30902002E05EB820332DB4BB3467882
S31500001C305EBBDF784088D4F804C03E46C6F3030492
S31500001C40C7F3031701264F728C728E80002840F06E
S31500001C50AC8035F822209B78CB800CEB02220A6000
S31500001C600872C8600FE00120704704EB8C0C02F08C
S31500001C7007069CF80B2002F00F0217444FEA1828BB
S31500001C80BCE74FF4AF60BDE8F08140F27950BDE8A3
S31500001C90F08115F82220457852083DB9042A00F251
S31500001CA0A180DFE802F0636363503C004FF0020C52
S31500001CB0012604271C78E40705F1FF35E5D5052A3A
S31500001CC00CD8DFE802F02325181210039A78D41CEA
S31500001CD01CFB026202EB940203EB82031A785208A1
S31500001CE0002DE7D1DAE70833F8E79A7817FB0262A6
S31500001CF003EB8203F2E71C799A7812FB04F20332B3
S31500001D00033402EB940203EB8203E7E70C33E5E7C7
S31500001D101A79033202F4FE720C321344DEE7D878E5
S31500001D205C785D680D6000230246C2F30302C0F3CF
S31500001D3003108B800B72CB60A307CC8048728A722B
S31500001D40A3D500209FE7D8785C789D78CC800246A2
S31500001D50C0F30310C2F303020433042448720020C4
S31500001D608A728D80CB600C7208608CE7DD781E79F4
S31500001D7040882C46C5F303154D72B5B2C4F303046F
S31500001D8085428C728D8010D9DC889D68012A00FB03
S31500001D9004540C601DD0022A0AD0B3F80130CB805F
S31500001DA000220A72CA60002BCBD140F27A506AE751
S31500001DB09C78033600FB04F202EB96061844F21CEC
S31500001DC003EB8203027BCA80CB600C72002AB8D177
S31500001DD0EBE718440023027BCA800B72CB60002A13
S31500001DE0AFD1E2E764204EE7F86500000C6400001E
S31500001DF08C640000034B04301B6823F8201000207D
S31500001E00704700BFB002FE1F034B021D1B68002077
S31500001E1023F82200704700BFB002FE1F034B1A686A
S31500001E20137843F08003137000207047B002FE1F42
S31500001E30034B1A6813786FF3C713137000207047AB
S31500001E40B002FE1F20B1034B1B68036000207047E1
S31500001E5001207047CC64000060B1012808D1094B0D
S31500001E601B68002040214122187119711A717047B0
S31500001E7001207047034B1B684021412298709970DE
S31500001E809A707047B002FE1FF0B587B0002832D0B6
S31500001E9004461A4800230B22CDE90133CDE903336A
S31500001EA0059302A9C3688DF8042001A89847054642
S31500001EB010B1284607B0F0BD114F029B3B6001A848
S31500001EC002F0B8FE606858B1A3683E6803EB800074
S31500001ED0598813F8042B0432834226F82210F7D1CE
S31500001EE02378002BE5D03A681378284643F0800320
S31500001EF0137007B0F0BD0125DBE700BF9464000056
S31500001F00B002FE1F062070470620704790B10A4BAC
S31500001F1002689A420CD190F90630084AC03312681A
S31500001F2052F823106FF3186142F82310002070470F
S31500001F30072070470120704700435444BC02FE1F2F
S31500001F4020B1034B1B6803600020704701207047D7
S31500001F50D064000010B31A4B02689A421CD1E9B152
S31500001F60184B90F906201B68DB8900209BB288710C
S31500001F70180415D4144B53F82230D87800F0C0005A
S31500001F80802813D0DB8940289BB28B8015D078B986
S31500001F904FF480330B60704707207047012070476D
S31500001FA05BB2934204BF01238B71E3E79B898B806D
S31500001FB04FF480730B6000207047DBB28B80F7E72D
S31500001FC000435444B802FE1F0000FE1FF0B1114A40
S31500001FD001689142034617D190F9062012F1210FAC
S31500001FE016D00D4902F1C000096830B451F82040FE
S31500001FF00A4D6FF3186441F82040002145F822107D
S315000020000846196030BC70470720704701207047AA
S315000020100B20704700435444BC02FE1F0000FE1F05
S3150000202068B31D4B02689A422BD190F9063013F122
S31500002030210F28D0194A52F823209168F9B1516826
S31500002040E9B1D17801F0300110291ED0202910D035
S31500002050134AC033126852F823106FF3104142F846
S31500002060231052F8231041F0807142F8231000200B
S3150000207070479168890702D152689207E8D001201B
S315000020807047072070470B2070479168C907F6D440
S315000020905268D007DCD5F2E7004354440000FE1F27
S315000020A0BC02FE1FF0B583B00191009200283ED01D
S315000020B0214990F9062051F82260F17811F0C0010B
S315000020C02ED053B31D4C0568A5422DD1802902D1CF
S315000020D0F489A4B25CB31A4C1A4D24682D68C03238
S315000020E054F822706FF3186744F822702A786FF359
S315000020F004122A70019A0AB1019A7260009A0AB112
S31500002100009AB260802915D001B9F381FFF788FFE4
S315000021102B7843F010032B7038B1132003B0F0BDB9
S31500002120064C0568A542D6D0072003B0F0BD0120B5
S3150000213003B0F0BDB381E9E70000FE1F004354443D
S31500002140BC02FE1FB802FE1FF0B583B001919DF8D8
S3150000215020600092BDF8245000283BD0214A90F917
S31500002160064052F82410CA7802F0C002802A34D100
S31500002170002D2FD0002B2DD01B4A076897422FD158
S315000021801A4A1B4F12683F68C03452F824C06FF3D6
S31500002190186C42F824C03A786FF304123A70019A28
S315000021A00AB1019A4A60009A0AB1009A8A60CA780E
S315000021B08D81CB818B7BCB7366F30512CA70FFF7DB
S315000021C02FFF3B7843F01003002814BF1320002094
S315000021D03B7000E0012003B0F0BD062003B0F0BD67
S315000021E00720F8E70000FE1F00435444BC02FE1F10
S315000021F0B802FE1F40B339B30B682BB3DA7812F07E
S31500002200C00F1DD1534B02689A422AD02DE9F047E0
S31500002210514E337886B00746884623BB4F48019314
S315000022200822C4688DF80420CDE90233CDE90433D1
S315000022300DEB020101A8A04740B106B0BDE8F0874A
S31500002240DB89B3F5807FDDD901207047444D029BC1
S315000022502B6001A802F068FD814600285CD00A20A8
S31500002260EBE7082070473F4B1D68B8F80460002371
S3150000227002E00133702B48D003F1C00459B255F87F
S315000022802420C2F308029642F3D1374E55F8242093
S3150000229056F82300C2F30802BA8030BBD8F800C053
S315000022A0624600E01032D07810F0C00F1CBF907B61
S315000022B0D073907810F0C000F4D1294C98F806201D
S315000022C02468DFF890E0257860F30415257046F859
S315000022D023C0B971C7F800E05AB92378104643F015
S315000022E01003237006B0BDE8F087082006B0BDE8ED
S315000022F0F0873846FFF794FE237843F01003002852
S3150000230014BF13200020237097E7D5F87C32C3F35F
S315000023100803BB800B2090E7DFF84CA001A802F071
S3150000232089FC49464FF4E072504603F0EDFF2B68F6
S31500002330C3F804A01A7B062542F001021A738DF831
S31500002340045002A901A8A047064B029D1D60012367
S3150000235033708AE700435444B402FE1F94640000BD
S31500002360B802FE1FBC02FE1F0000FE1F094A0A4BF0
S3150000237012680A4810B4D2E906144FF400421960F4
S315000023800021DC60586059619A601A615DF8044B5F
S31500002390704700BF8802FE1F7002FE1F00127A00FF
S315000023A0324B1B6893F8283013F0300206D0102AFF
S315000023B005D0202A2DD02E4A002353617047028D66
S315000023C02C4902F0030231F812100029F6D05B0600
S315000023D010B444D40324264A038D52F824005DF831
S315000023E0044B06EE900A07EE901AF8EE666AF8EECF
S315000023F0677AC3F3052386EEA77A013307EE903A90
S31500002400FAEEEF7A67EE277AFCEEE77AC2ED057A06
S31500002410704790F82B30184A9B0932F813100029A0
S31500002420CCD007EE901A124A90F82B30F8EE676A75
S31500002430D2ED037AB8EE676A03F01F03C6EE267A7A
S3150000244007EE103AB8EE477AF7EE006A37EE267ACC
S3150000245067EE877AFCEEE77A17EE903AADE7038DE2
S3150000246013F0100F0CBF03240024B4E78802FE1FEC
S315000024707002FE1F1465000004650000F8B50D4BE0
S3150000248005461A68002092F8206092F821700C46E2
S3150000249002F008FD95F81334BC405BB25C40344052
S315000024A06340DBB285F813340020BDE8F84002F043
S315000024B0C9BC00BF8802FE1FF8B50D4B05461A6859
S315000024C0002092F8226092F823700C4602F0EAFC93
S315000024D095F88134BC405BB25C4034406340DBB26B
S315000024E085F881340020BDE8F84002F0ABBC00BF9F
S315000024F08802FE1F38B505460C46002002F0D2FCC5
S31500002500052C0AD8DFE804F00319242F3A0E95F8B3
S3150000251036306FF3000385F836300020BDE83840CA
S3150000252002F090BC95F82A306FF3000385F82A3044
S315000025300020BDE8384002F085BC95F838306FF3CE
S31500002540000385F838300020BDE8384002F07ABC38
S3150000255095F890346FF3000385F890340020BDE8B9
S31500002560384002F06FBC95F832306FF3000385F8FF
S3150000257032300020BDE8384002F064BC95F8803463
S315000025806FF3000385F880340020BDE8384002F080
S3150000259059BC00BF38B505460C46002002F082FC47
S315000025A0052C0AD8DFE804F00319242F3A0E95F813
S315000025B0363043F0010385F836300020BDE8384058
S315000025C002F040BC95F82A3043F0010385F82A3022
S315000025D00020BDE8384002F035BC95F8383043F0AD
S315000025E0010385F838300020BDE8384002F02ABCE7
S315000025F095F8903443F0010385F890340020BDE847
S31500002600384002F01FBC95F8323043F0010385F8DC
S3150000261032300020BDE8384002F014BC95F8803412
S3150000262043F0010385F880340020BDE8384002F00D
S3150000263009BC00BF03290ED0052907D009B1002027
S31500002640704790F83C0000F00100704790F83C009D
S31500002650C0F34010704790F83C00C0F3C0007047CC
S3150000266005292ED8DFE801F00A11181F260390F875
S315000026702A0000F0010080F00100704790F8360053
S3150000268000F0010080F00100704790F8380000F07B
S31500002690010080F00100704790F8900400F00100FE
S315000026A080F00100704790F8320000F0010080F0E1
S315000026B00100704790F8800400F0010080F00100EE
S315000026C070470020704700BF036A90F826307047B5
S315000026D038B5044600200D4602F0E4FB94F81334A6
S315000026E065F3861384F813340020BDE8384002F001
S315000026F0A9BB00BF38B504460020154602F0D2FB40
S3150000270094F8A23065F3030384F8A2300020BDE8F4
S31500002710384002F097BB00BF084B1B6893F828307F
S3150000272013F0300F04D104288CBF0020012070471D
S3150000273005288CBF00200120704700BF8802FE1FBD
S3150000274006288CBF00200120704700BF90F82600A5
S3150000275000F00700704700BF38B5044600200D465C
S3150000276002F0A0FB94F8263065F3020384F82630C5
S315000027700020BDE8384002F065BB00BF074B1B6870
S3150000278093F828305B0606D5038D13F0100F0CBFA7
S315000027900320002070470320704700BF8802FE1FF9
S315000027A038B5044600200D4602F07CFB238D032D30
S315000027B00CBF6FF3041343F0100323850020BDE81C
S315000027C0384002F03FBB00BF38B51F4C236893F872
S315000027D0283003F03003102B2DED028B0546B0EEAA
S315000027E0408A19D0202B02D0BDEC028B38BD0020C8
S315000027F002F058FBFCEEC87ABDEC028B17EE903A5D
S3150000280095F82B20013B63F3040285F82B2000206A
S31500002810BDE8384002F016BB002002F043FB78EE1C
S31500002820087A2A8DFCEEE77A002017EE903A013BF3
S3150000283063F30D222A8502F005FB236893F82830FE
S3150000284003F03003CEE700BF8802FE1FF8B5184C30
S31500002850236893F8283003F03003102B05460E4604
S3150000286013D0202B00D0F8BD124B002033F81640B1
S3150000287002F018FB95F82B3064F3871385F82B309C
S315000028800020BDE8F84002F0DDBA0B4B002033F81B
S31500002890117002F007FB2B8D67F301032B850020D7
S315000028A002F0D0FA236893F8283003F03003D8E713
S315000028B08802FE1FFC6400000C65000038B51A4B48
S315000028C01A6892F8293092F82A200546180748BF58
S315000028D008784FF0000448BF60F30E34D80644BFB2
S315000028E0487860F30A24980644BF887860F3061493
S315000028F0580644BFC87860F30204D20744BF0A7979
S3150000290062F312441B0644BF4B7963F31E748B7942
S31500002910002063F31A6402F0C5FA2C620020BDE8B9
S31500002920384002F08FBA00BF8802FE1F036AC3F365
S3150000293002330B70036AC3F302234B70036AC3F3BB
S3150000294002138B70036AC3F30203CB70036AC3F3EB
S3150000295002430B71036AC3F302734B71036AC3F339
S3150000296002638B71704700BF144B42781B6893F863
S31500002970241091421ED393F8262090ED017A07EE9B
S31500002980902AF8EE677AF4EEC77AF1EE10FA11D4CF
S3150000299093F8253007EE903AF8EE677AB4EEE77AC8
S315000029A0F1EE10FA06D40078032805D0B0FA80F0CC
S315000029B04009704700207047012070478802FE1FBB
S315000029C0062921D8DFE801F0080C1014181C0400B1
S315000029D0006AC0F302607047006AC0F302307047B5
S315000029E0006AC0F302207047006AC0F30210704705
S315000029F0006A00F007007047006AC0F302407047A3
S31500002A00006AC0F3027070470020704708B502469E
S31500002A10FFF7D6FF92F82630034A03F0070352F871
S31500002A20233023FA00F008BD7002FE1F024B53F854
S31500002A302000C840704700BF7002FE1F30B5044634
S31500002A4083B001200D4602F02DFA02A8002300F8FB
S31500002A50013D01F04BFE94F8AA30DA06FBD494F857
S31500002A60A030C3F30013002BF5D194F8AA2063F32A
S31500002A70000284F8AA2094F8AA30DB06FBD494F866
S31500002A80A030D806F7D494F8A030042D0CBF43F03C
S31500002A90030365F3010384F8A03094F8AA30D9063D
S31500002AA0FBD494F8A030C3F30013002BF5D1042D0A
S31500002AB016D094F8AA2063F3000284F8AA2094F8AA
S31500002AC0AA30DA06FBD494F8A030DB06F7D49DF8DA
S31500002AD0070001F01FFE012002F0B4F903B030BD7B
S31500002AE094F8AA3043F0010384F8AA30E7E700BF60
S31500002AF090F8AA30DB075ABF90F8A00000F0030058
S31500002B000420704710B50446002002F0CBF994F873
S31500002B10403043F0800384F8403094F8403043F06E
S31500002B20010384F840300020BDE8104002F08AB965
S31500002B3010B50446002002F0B5F994F840306FF362
S31500002B40000384F8403094F840306FF3C71384F8DC
S31500002B5040300020BDE8104002F074B990F8400003
S31500002B60C009704790F8410000F00100704700BFAF
S31500002B7038B590F8413013F0010401D1002038BD7A
S31500002B800546002002F08EF995F841306FF30003F8
S31500002B9085F84130002002F055F9204638BD00BFC7
S31500002BA038B5044600200D4602F07CF994F8303022
S31500002BB065F3000384F830300020BDE8384002F0A9
S31500002BC041B900BF10B50446002002F06BF994F835
S31500002BD0523043F0010384F852300020BDE8104023
S31500002BE002F030B910B50446002002F05BF994F803
S31500002BF052306FF3000384F852300020BDE81040D5
S31500002C0002F020B970B5044600200D46164602F0C3
S31500002C1049F994F83E306FF3C71384F83E3094F8C0
S31500002C203E3066F3061384F83E3094F83E3065F382
S31500002C30020384F83E300020BDE8704002F002B97D
S31500002C4010B50446002002F02DF994F83E3043F00A
S31500002C50800384F83E300020BDE8104002F0F2B850
S31500002C6010B50446002002F01DF994F83E306FF3CB
S31500002C70C71384F83E300020BDE8104002F0E2B8E9
S31500002C8010B50446002002F00DF994F8533043F0D5
S31500002C90010384F853300020BDE8104002F0D2B89A
S31500002CA010B50446002002F0FDF894F853306FF397
S31500002CB0000384F853300020BDE8104002F0C2B88B
S31500002CC038B5044600200D4602F0ECF894F824309E
S31500002CD065F3061384F824300020BDE8384002F07E
S31500002CE0B1B800BF124B70B41D681A6892071BD5A5
S31500002CF00022104C1A6094F823100138B0F1807F3E
S31500002D00C9B20DD2F026072501F0F001586084F80B
S31500002D1023609A601D6084F82310012070BC704700
S31500002D201D60104670BC7047012070BC704700BF24
S31500002D3010E000E000ED00E090F8503061F303038E
S31500002D4080F85030704700BF90F8500000F00F0038
S31500002D50704700BF90F8503043F0800380F8503041
S31500002D60704700BF90F850306FF3C71380F85030AB
S31500002D70704700BF90F85000C009704790F8D130F6
S31500002D8021B16FF3000380F8D130704743F001039F
S31500002D9080F8D130704700BF90F8D13043F08003FF
S31500002DA080F8D130704700BF90F8D1306FF3C71369
S31500002DB080F8D130704700BF90F8D100C009704745
S31500002DC038B5044600200D4602F06CF894F8A5309C
S31500002DD065F3020384F8A5300020BDE8384002F010
S31500002DE031B800BF20B1034B1B6803600020704759
S31500002DF0012070478865000030B52A4C87B0204610
S31500002E0001F0C2FD06A800250323009500F8183D31
S31500002E10254B02A9DB68CDE90255CDE90455984753
S31500002E20029860604FF6FF7329460193FFF718FC7E
S31500002E3028B90CE0019B43B1019B013B01930021A2
S31500002E406068FFF7F7FB0028F4D0019B33B3606896
S31500002E500621FFF7B5FF4FF6FF730193FFF786FADA
S31500002E6004216068FFF796FB04E0019B43B1019BD8
S31500002E70013B019304216068FFF7F2FB0028F4D1BF
S31500002E80019B5BB1052260680421FFF71DFC6068A9
S31500002E900021FFF711FB002007B030BD4FF4CD70C5
S31500002EA007B030BD8802FE1F9464000038B5124C8E
S31500002EB06068FFF757FE78B16068FFF747FC236844
S31500002EC093F8283013F0300F054603D05B0608D47C
S31500002ED005280DD0032D0BD06068FFF749FE0020B2
S31500002EE038BD6068FFF74AFC052DF3D10328F3D1FE
S31500002EF040F2971038BD00BF8802FE1F08B5034B8D
S31500002F0001465868FFF74CFE002008BD8802FE1FE8
S31500002F1008B5034B5868FFF755FE002008BD00BFF3
S31500002F208802FE1F08B5034B5868FFF75BFE0020BA
S31500002F3008BD00BF8802FE1F08B5044B0A460146BD
S31500002F405868FFF75FFE002008BD00BF8802FE1F1D
S31500002F5008B5034B5868FFF773FE002008BD00BF95
S31500002F608802FE1F08B5034B5868FFF779FE00205C
S31500002F7008BD00BF8802FE1F38B50446FFF7CCFB2C
S31500002F8050B3631E012B19D9042C17D0052C1ED85B
S31500002F902923E340DB071AD5104D21466868FFF761
S31500002FA05FFBB0B121466868FFF744FB40F293131C
S31500002FB0002814BF4FF4C970184638BD074B214688
S31500002FC05868FFF74DFB20B140F2911038BD002044
S31500002FD038BD4FF4C87038BD032038BD8802FE1FC7
S31500002FE070B506464FF6FE7440F2931501E0013CBB
S31500002FF005D03046FFF7C0FFA842F8D000B970BD33
S315000030006FF4C873C318012B98BF002070BD00BFB2
S3150000301070B582B00E460446FFF77EFB002866D0E8
S31500003020684D052C6868214617D0FFF719FB002864
S3150000303040F08380012C40F28680032C5AD0631E18
S31500003040012B73D9042C00F08C80002C00F08280B8
S31500003050032C00F0A58000204AE0FFF701FB0028C2
S315000030604FD1002E6DD06868FFF770FB052864D03D
S315000030703046FFF779FC002839D031786868FFF7C9
S31500003080EFFA002800F09B8021466868FFF7D2FA25
S31500003090002840F08C80D5E9003093F828305B0694
S315000030A003D53178FFF77CFB68687178FFF7CEFBB4
S315000030B096ED010A6868FFF787FB6868FFF770F905
S315000030C02B6893F82810052001F00F01FFF7AEFCDE
S315000030D02B685B6898428CBF002101216868FFF766
S315000030E0ADFC68680521FFF705FA002000E0032023
S315000030F002B070BD6868FFF7FBFC042850D10520BC
S31500003100F6E76868FFF74CF940F29110F0E7D5E969
S31500003110003093F82710FFF7B1F931466868FFF7DA
S31500003120D7FA092203216868FFF7E4FA686821469E
S31500003130FFF7E0F9002002B070BD40F2911002B036
S3150000314070BD0120D4E76868FFF7D2FC04287FF43D
S3150000315076AFD4E721466868FFF76CFA0028E5D019
S3150000316025E04FF6FF73214668680193FFF778FA6A
S3150000317000B304216868FFF7BDF904E0019B43B181
S31500003180019B013B019304216868FFF769FA002857
S31500003190F4D0019B002B7FF45EAF4FF4CD70A7E710
S315000031A003216868FFF746FA06460028AFD040F2CA
S315000031B093109DE701466868FFF77EF9D9E74FF45B
S315000031C0CA7095E78802FE1F70B582B00446FFF705
S315000031D0A3FA40B32F4E7068FFF7B8FA844225D0A1
S315000031E00528736830D0012C184623D02146FFF7F6
S315000031F037FAA8B1022C0FD0042C2CD0052C0FD8EE
S315000032002920E040C04310F0010509D1214670682D
S31500003210FFF710FA002837D021467068FFF7BAF991
S31500003220002002B070BD032002B070BD40F29110C4
S3150000323002B070BDFFF792FC48BB21467068FFF7ED
S315000032400FFA0028ECD0E7E71846FFF797FAA042F6
S31500003250ECD07368C7E721467068FFF79BF94FF615
S31500003260FF73019304E0019B43B1019B013B019372
S3150000327004217068FFF7F4F90028F4D1019B002BB4
S31500003280CED14FF4CD70CCE740F29310C9E740F2AF
S315000032909510C6E78802FE1F70B169B170B5074E7A
S315000032A0044670680D46FFF751FA2946207070688B
S315000032B0FFF73CFB002070BD012070478802FE1F0F
S315000032C070B589B100250D6006460C46FFF738FA41
S315000032D038B1074B31465868FFF798FB20602846FF
S315000032E070BD0325284670BD0125284670BD00BF68
S315000032F08802FE1F70B582B001B30446D8B1334DC3
S315000033006868FFF7F5FB0428064614D06946686826
S31500003310FFF70CFB2B689A6802BBDA680AB1022E2B
S3150000332049D02146012001F041FB6868FFF7EAFB1E
S31500003330002002B070BD012002B070BD234D686848
S31500003340FFF710FC044628B96868FFF7F1FB204632
S3150000335002B070BD4FF4CB7002B070BD032EDCD14D
S3150000336093F829201969100703D59DF800008842B3
S315000033701FD3D00603D59DF80100884219D39606BF
S3150000338003D59DF80200884213D3500603D59DF855
S31500003390030088420DD3120613D493F82A30DB07B4
S315000033A003D59DF804308B4203D39DF806308B423B
S315000033B0B7D20520C0E793F8292059691607D8D552
S315000033C0D3E79DF805208A42E7D2F2E78802FE1F7E
S315000033D038B50E4D0E4C002001F064FD6868FFF70D
S315000033E0B9FC01E06CB1013C6868FFF7C3FC00283A
S315000033F0F8D0002001F026FD002C0CBF1420002080
S3150000340038BD01F01FFD142038BD00BF8802FE1F25
S31500003410FFFF0F00044B1B6893F8290010F0010012
S3150000342000D17047FFF7D4BF8802FE1F38B50E4D96
S315000034300E4C002001F036FD6868FFF793FC01E0B2
S3150000344064B1013C6868FFF795FC0028F8D101F0EB
S31500003450F9FC002C0CBF1420002038BD204601F0DA
S31500003460F1FC142038BD00BF8802FE1FFFFF0F00CD
S31500003470044B1B6893F8290010F0010000D1704737
S31500003480FFF7D4BF8802FE1FF8B5244D2B6893F8CA
S315000034902930DC0728D5224B1E5CFF2E26D00020C3
S315000034A001F000FD6868FFF765FC2B6893F829308A
S315000034B0D907074623D4314668681A4CFFF73CFC07
S315000034C001E0FCB1013C6868FFF73EFC8642F8D19A
S315000034D037B12B6893F82930DA0701D5FFF778FF63
S315000034E0002001F0AFFC44B10020F8BD0320F8BD78
S315000034F0FFF76EFF204601F0A5FC1420F8BDFFF78C
S3150000350095FFD8E727B12B6893F82930DB07EFD46E
S31500003510002001F097FC1420F8BD00BF8802FE1FB2
S315000035208C650000FFFF0F0008B5002001F0BAFC13
S31500003530044B5868FFF730FC0020BDE8084001F056
S3150000354081BC00BF8802FE1F08B5054B1B6893F8B7
S315000035502A309B0701D5FFF7E7FF002008BD00BF13
S315000035608802FE1F08B5002001F09CFC044B586839
S31500003570FFF71AFC0020BDE8084001F063BC00BF5D
S315000035808802FE1F08B5054B1B6893F82A309B0777
S3150000359001D5FFF7E7FF002008BD00BF8802FE1F28
S315000035A070B5174C236893F82A3013F002031CD029
S315000035B0032800D008BB0546002001F073FC6068B4
S315000035C0FFF7FAFB236893F82A309A07064611D4C8
S315000035D029466068FFF7D2FB26B1236893F82A30A4
S315000035E09B0704D4002001F02DFC002070BDFFF7DE
S315000035F09BFFF7E7FFF7B6FFEAE7032070BD00BFC2
S315000036008802FE1F08B5054B1A6892F82920920712
S3150000361002D55868FFF734FB002008BD8802FE1F5C
S3150000362008B5054B1A6892F82920920702D5586802
S31500003630FFF736FB002008BD8802FE1F08B5064BC3
S315000036401A6892F82920520703D501465868FFF7F1
S3150000365037FB002008BD00BF8802FE1F08B501F039
S31500003660C5F807EE900AB8EE677AF7EE006AC6EE7E
S31500003670877A9FED097ADFED096A67EE877A86EE2B
S31500003680A77AFCEEC77A17EE900AFFF72BFB002805
S315000036900CBF1220002008BD0024744900401C46BF
S315000036A008B1FFF7DBBF0320704700BFF0B587B056
S315000036B00C460746FFF730F878B3002C33D06C4E33
S315000036C0326892F82930190723D52578A079A842BF
S315000036D023D861788D4220D894F803C0AC451CD815
S315000036E088421AD85BB2002B7CDB92F82A20D207DC
S315000036F002D52279824210D3042F18D138B96279C3
S315000037000AB1002B03DB7068FFF728FA78B10525AC
S3150000371004E06178E078884203D90325284607B09B
S31500003720F0BDA079DCE70125284607B0F0BD0021F1
S315000037307068FFF783F90023A1798DF808303846C1
S315000037408DF81430FFF772F9062103907068FFF7C1
S315000037505DF9049002A801F059F805460028DDD16C
S315000037607068FEF7F3FF87420BD0052F09D829238F
S31500003770FB40DB07706805D53946FEF75BFF00287E
S3150000378050D070686946FFF7D1F89DF80620A379F6
S315000037909A422CD221467068FFF790F83946706835
S315000037A0FEF7DAFF01F022F8324A042F03461060D2
S315000037B026D0022F706833D0012F48D0032F34D083
S315000037C0052F4DD00621FFF721F90123049002A809
S315000037D08DF8083001F01AF8054600289ED1FFF74B
S315000037E03DFF9BE761798142BFF47FAF95E739469C
S315000037F07068FEF7B1FF21467068FFF75FF8D1E702
S31500003800D6E9003093F92820002A24DB9A68CAB941
S315000038105B68002BD6D00121FFF710F97068D1E75D
S315000038203368F3E740F2931578E731684A689342C4
S3150000383001D9002AC6D189688B4216D90029C1D080
S31500003840002AE8D10321FFF7F9F87068BAE7336870
S315000038505B68002BB6D03946FFF7F0F87068B1E721
S31500003860326852689342ADD8D5E70029AAD0E9E775
S315000038708802FE1F1003FE1F002800F098802DE925
S31500003880F04F89B0054608A8002300F8113D95F8C9
S315000038900080069306A9CDF81B30FFF7FDFC6A7D74
S315000038A0EB7C297D8DF810208DF81230EA7DAB7DFA
S315000038B02E7E8DF8111040468DF813208DF81430A9
S315000038C08DF81560FEF728FF00285FD02B7808AA30
S315000038D0134413F8103C012B58D0022E52D0DFF8B7
S315000038E02C91D9F8003093F8283013F0300F14BF1C
S315000038F04FF0060A4FF0050A002440F291170DF129
S31500003900100B04E0022B46D00134544510D0052C90
S31500003910E0B24FD014F80B30012BF3D1FFF754FC73
S3150000392003460028F0D0BB4231D101345445EED1D4
S315000039304046FFF755FB034648BB05F10C014046E0
S31500003940FFF7B4FE034610BB9DF80F40A0451ED0FE
S3150000395008AA224412F8102C012A4ED0D9F80400E5
S315000039600193FEF70BFF08AB1918019B11F8101C09
S3150000397001290CD1052C0AD1804508D0FFF724FC7B
S31500003980034604E02879FEF7C7FEC0B903231846AC
S3150000399009B0BDE8F08F0021FFF73AFB0346002887
S315000039A0B2D0B842B0D0184609B0BDE8F08F0123B6
S315000039B018467047022E0AD0012EA5D1AEE72B7904
S315000039C008AA134413F8103C012B88D1DEE7002126
S315000039D02879FFF71DFB034608B1B842D7D12879ED
S315000039E0FFF7FEFA03460028D1D1291D0520FFF76F
S315000039F00FFB0346002896D186E701902046FFF785
S31500003A00E3FB019B0028A9D00346C0E78802FE1FFE
S31500003A1020B1034B1B6803600020704701207047EC
S31500003A20C86500000620704788B10F4B826A9A422B
S31500003A300BD1C3695BB190F82420022A09D01A88F9
S31500003A4042F400721A800020704707207047012058
S31500003A5070471888C00B04D11A8842F400421A80B5
S31500003A6070470820704700BF4344415298B10B4B42
S31500003A70826A9A420DD1C3696BB190F82420022A5A
S31500003A801A8814BF6FF349226FF3CF321A800020D1
S31500003A907047072070470120704700BF43444152DA
S31500003AA068B1084B826A9A4207D1C3693BB11B8849
S31500003AB0DB0B0CBF00200820704707207047012051
S31500003AC0704700BF43444152E8B1CB1CDBB21E2B0A
S31500003AD01BD8002910B407DB134B048853F8244085
S31500003AE001238B40234216D0104B846A9C420ED190
S31500003AF0AAB1C369ABB11031002033F8113013807D
S31500003B005DF8044B7047012070470320704707207B
S31500003B105DF8044B704703205DF8044B70470220A4
S31500003B20EEE70120ECE700BFC002FE1F434441520E
S31500003B3030B583B002AB002423F8024D14461A4672
S31500003B400546FFF7C1FFBDF8063020B9EA88B2F591
S31500003B50004F08BF1B04236003B030BD18B311B378
S31500003B601A4B826A9A421CD191F90020D31CDBB20F
S31500003B70122B1DD8002A18DB154B10B4048853F8F5
S31500003B80244001239340234214D04978062911D9B1
S31500003B90C369CBB11A44002082F8E0105DF8044BEB
S31500003BA0704707207047012070474978062903D8D7
S31500003BB0032070470320F1E7C369002BF3D01A44B2
S31500003BC0002082F8E01070470120E7E743444152A5
S31500003BD0C002FE1F88B381B3364B826A9A422AD14D
S31500003BE00379012B5BD070B5C56982B03DB3C46A59
S31500003BF044B34FF0FF330126013306FA03F22242A3
S31500003C00FAD01C2B4FD01D2B4BD010335A00154425
S31500003C100D6020230126013B06FA03F52542FAD062
S31500003C201C2B42D01D2B42D010335B009B1A5B101D
S31500003C3001334B6007E007207047012070470120E1
S31500003C4002B070BD4C601C4A03881669ADF8063098
S31500003C500C460023054601212022ADF804300093CE
S31500003C6021728DF8042002216A4601A8B0472B78FC
S31500003C70BDF80220628104335B004FF0FF326372AD
S31500003C80E260EB7A012B05D16A695178137843EA31
S31500003C900123E3606B882382002002B070BD0320FD
S31500003CA070471C22B3E71A22B1E71A23BEE71C238A
S31500003CB0BCE700BF4344415294640000D0B110B544
S31500003CC084B0002304466846CDE90033CDE90233CB
S31500003CD000F03CFE9DF80C309B070DD5E3691A8871
S31500003CE0D20B0CD11B8813F4007F14BF1B200020BD
S31500003CF004B010BD01207047062004B010BD1B2083
S31500003D0004B010BD30B5B0F880306FF30003A0F8F2
S31500003D1080300388C3F34133012B038A43F47C5379
S31500003D2083B00D46038203D1038A43F03F03038227
S31500003D30002404802B88448220226846ADF8004087
S31500003D40ADF802308DF8002000F070FFEB6ADB0062
S31500003D500AD52B6903B11C7002A800222223019206
S31500003D6000F8043D00F062FF03B030BD002842D0E9
S31500003D703C4B826A9A423CD1C369002B3BD030B59A
S31500003D80044690F93000002310F1210F83B0A3629E
S31500003D900BD098424BDA00F087FF334B94F9302072
S31500003DA01B6853F8323000221A6094F9310010F182
S31500003DB0210F0BD0002820DA00F076FF2A4B94F969
S31500003DC031201B6853F8323000221A602146E06920
S31500003DD0FFF798FF02A800252023ADF8045000F84D
S31500003DE0043D2388ADF8063000F0D2FF284603B024
S31500003DF030BD072070470120704742092032012359
S31500003E001A4900F01F0003FA00F041F82200BFF340
S31500003E104F8FBFF36F8F94F931000028CCDB420936
S31500003E20603200F01F05AB4041F82230C4E742097A
S31500003E30203201230D4900F01F0003FA00F041F87B
S31500003E402200BFF34F8FBFF36F8F94F93000002825
S31500003E50A1DB4209603200F01F05AB4041F8223079
S31500003E6099E700BF43444152506A000000E100E078
S31500003E702DE9F0438DB048B141B18B88C3F30E03F1
S31500003E804BB1032528460DB0BDE8F0830125284631
S31500003E900DB0BDE8F083064608A80C46CDE9083308
S31500003EA0CDE90A338D7800F051FD9DF82C3013F0E2
S31500003EB0010FA37904D15A1E022AE2D9052BE0D0BC
S31500003EC0032B05D903F0FD02812A01D0052BD8D199
S31500003ED0E27912F0DF0FD4D1227A022AD1D8A17862
S31500003EE00229CED8E07808B1052BCAD0206908B1DE
S31500003EF00229C6D0012D00F08581BD4BB56A9D42D1
S31500003F0000F06B8125886369BA4FB3613062002384
S31500003F103580ADF80A502020A588ADF80830CDE9E7
S31500003F200833CDE90A333171F5808DF80800FB6856
S31500003F3086F8242002A808A9984705460028A6D195
S31500003F40BDF82620089BF361C2F382030433C2F353
S31500003F5040125B0072723372A749208851F8202004
S31500003F604AB90B9A558841F820505268120C12042F
S31500003F702A4341F820200C2B00F04B810E2B00F039
S31500003F802E81102B03D1E378042B7FF47AAF02A89D
S31500003F9000F0CAFE054600287FF479AF0890D7F8EE
S31500003FA0108008AA022102A8C04723699DF92000B3
S31500003FB086F83000002B00F03E8110F1210F00F052
S31500003FC035818E4AA37A12681B01002852F830C048
S31500003FD0DBB2C2B2C0F23481DFF824E24FEA5019F4
S31500003FE009F120097044012102F01F0201FA02F2D0
S31500003FF080F80033CCF800604EF82920BFF34F8FCD
S31500004000BFF36F8F96F93000002806DB4309603353
S3150000401000F01F0291404EF8231000F045FE08AA5A
S31500004020032102A8C047A3789DF9200086F8310035
S31500004030012B00F0F38010F1210F2DD06F4AE37AA7
S3150000404012681B01002852F830E0DBB2C2B2C0F29F
S31500004050FF80DFF8AC814FEA501C0CF1200C404485
S31500004060012102F01F0201FA02F280F80033CEF8B5
S31500004070006048F82C20BFF34F8FBFF36F8F96F97F
S315000040803100002806DB4309603300F01F0291402F
S3150000409048F8231000F008FE00237381C6E90433B4
S315000040A004A8CDE90433CDE90633019300F04EFCB4
S315000040B09DF81020019B039322218DF80C10D10648
S315000040C00ED5CDE90833CDE90A3308A9FB6803A864
S315000040D09847E0B90122089BB2729DF8102033611F
S315000040E0130711D500234FF00108FA688DF80D80EB
S315000040F0CDE90833CDE90A3308A903A8904730B9BA
S31500004100089B86F80B807361BDF8123073803146C8
S31500004110F069FFF7F7FD002720222388ADF810701D
S3150000412004A88DF81020ADF81230CDE90877CDE956
S315000041300A7700F07FFDF369A1781F805F821A88F5
S3150000414061F34E321A801A8867F3C7121A80227AF0
S31500004150012A00F085803AB9198841F480711980E6
S31500004160198A62F30D211982D88994F803C0A188AF
S31500004170E279A7796CF34200D881A1F50041D8898C
S31500004180B1FA81F1490961F3CF30D881A2F1200259
S31500004190D989B2FA82F2520962F34511D98108A887
S315000041A01F7300F0D3FB9DF82C30C3F34003DAB243
S315000041B0337312B1217B002958D0737A012B07D1B2
S315000041C0F369002149F69912A3F8B011A3F8A021CA
S315000041D0074B0022C6E90A3259E6082557E6E37876
S315000041E0032B3FF4D4AE002B3FF4D1AE49E600BF1B
S315000041F04344415294640000C002FE1F506A00000E
S3150000420000E100E0258940F201139D423FF475AEBE
S3150000421037E6E378022B7FF6BAAE32E62369002B47
S315000042203FF409AF10F1210F7FF408AF02A800F0A8
S31500004230AFFD0B252BE610F1210F3FF4F0AEC0E6E3
S315000042401B4902F00F0211440B76CCF80060E4E63D
S31500004250174902F00F0211440B76CEF8006019E7F9
S315000042601A8A092161F30D221A827DE73046FFF78B
S3150000427025FD044640B102A800F08AFD3146F069EA
S315000042802546FFF73FFD02E696F9300000F00CFDEB
S3150000429096F93030002B90DB5A09603203F01F0389
S315000042A00121044801FA03F340F8223085E700BFF4
S315000042B0FCEC00E000E100E0002800F00E8100299F
S315000042C000F00B81B74B826A9A4240F004812DE9D7
S315000042D0F041C66986B0002E00F001810B680446E5
S315000042E00D46002B00F00081AF4A018852F82120CC
S315000042F042F04052D243134240F0F680318868685B
S31500004300C1F34131012900F0F480002840F0EC802F
S31500004310002302A8CDE90233CDE9043300F016FBF1
S315000043209DF80820970700F1EA80D5E9003111F0E1
S31500004330405F40F0D98013F040510BD03088000622
S3150000434000F1D280520700F15D8196F87A20002AAA
S3150000435040F0CA80327BE968520700F004816A683F
S315000043601A4331EA020240F0BF80002900F0BC8007
S315000043702A7C002A40F064816A689FB290B2B780B6
S31500004380B082180C13438FB2120C090C13F0405F65
S315000043903781F080F28271815DD00DF1180800231B
S315000043A002A848F8143DCDE90233CDE9043300F004
S315000043B0CDFA7E4B9DF810009B69414698470199BE
S315000043C07B4B994240F28F802B68002840F08C800E
S315000043D07848039AA0FB0101890C774802FB01F794
S315000043E0A0FB0727BF09FA1FF82A7DD8D90000F1DC
S315000043F0CA806A68D20015D5FAB286F8DE20A27A9B
S31500004400012A00F09E80728A6FF308227282728AF5
S3150000441042F480627282EA68718AC2F3007262F3C1
S315000044200001718213F0005340F0A1806A68910088
S3150000443011D5FFB286F8DF70728A63F34922728261
S31500004440738A43F400637382EB68728AC3F3407322
S3150000445063F3410272822B7C6A7C2989E7692079A1
S315000044605B0203F4C063134348F201029142A6F8CB
S31500004470663046D00228A6F880105FD0B7F80080D4
S31500004480C8F34138B8F1010F00F09A8094F9300072
S3150000449010F1210F13D000F007FC94F93020002A08
S315000044A00DDB53099B0003F1604303F5614302F002
S315000044B01F02012101FA02F2C3F880211A6029893C
S315000044C02B6848F20102914236D148F20102A6F861
S315000044D08020002009E00720704701207047012056
S315000044E006B0BDE8F0812B680320E36206B0BDE8A4
S315000044F0F0810028F8D01A430242F5D108E72B686C
S3150000450019E7022800F0EE803B88C3F34133012B04
S31500004510BCD13A8A94F9310042F03F0210F1210FE2
S315000045203A8204D0002880F2BD8000F0BDFB3B88B3
S315000045306FF386133B80A9E70020D6E72B6800209F
S31500004540D3E71E4800232222CDE90133CDE9033308
S31500004550059302A9C3688DF80420404698470028B1
S315000045605DD02B68C1E700293FF402AFBCE7FFB27C
S3150000457086F8DF70738A43F400737382738A6FF36D
S31500004580CB23738260E7FAB286F8DE20A27A012A8C
S31500004590D7D0728A42F480727282728A6FF38A224C
S315000045A0728238E743444152C002FE1F1C65000078
S315000045B03F420F0083DE1B43D34D6210946400001C
S315000045C094F9310010F1210F12D000F06DFB94F92F
S315000045D03130002B0CDB5A09920002F1604202F5E1
S315000045E0614203F01F0308FA03F3C2F88031136037
S315000045F03B8843F040033B803B8A0A2262F3050373
S315000046003B8243E7B1F1405F3FF46EAF33F0704257
S315000046107FF46AAF2279002A3FF49CAE64E74046F5
S3150000462000F008FB22692B68117841F080011170B7
S315000046301178D80041F0100111707FF5E4AEA8E7BB
S31500004640002302A8CDE90233CDE9043300F07EF958
S315000046509DF80830DB077FF546AF297C2B680729D4
S315000046603FF642AF6A7C032A7FF63EAF37886A6818
S31500004670C7F34137012F01EA020C01EA03002CD0EF
S3150000468081427FF431AF31880F0608D4BCF1000FA8
S3150000469003D0298900297FF427AFE9686DE6002851
S315000046A0F4D021E74209203200F01F01DFF838C0BC
S315000046B003FA01F14CF82210BFF34F8FBFF36F8F4F
S315000046C094F931000028FFF630AF4209603200F05D
S315000046D01F018B404CF8223027E78142D3D0614539
S315000046E0D1D001E72B68F0E600E100E068B1084AA6
S315000046F0B2F8001192F80031C1F300016FF3000324
S315000047000170002082F8003170470120704700BF19
S3150000471000C00140104991F8043143F0010381F8CB
S315000047200431B1F80431DB070AD54FF0FF3300E05E
S315000047307BB1B1F80421D20703F1FF33F8D443B1BA
S31500004740054A92F8003160F3000382F80031002038
S3150000475070471420704700BF00C0014070B5214D5E
S3150000476082B02B6898470120FFF7D4FF0021AE687E
S315000047700320B04701211C4AEC698DF80110032380
S3150000478001928DF800300320A047B0F5C97FFAD119
S3150000479069460520B0470520A047B0F5C97FFAD184
S315000047A000220124022369468DF806208DF8013087
S315000047B08DF802308DF805308DF800402B698DF8A4
S315000047C003408DF80440052098472B6E0420984737
S315000047D0AB6A20469847EB6A9847AB6D984702B09C
S315000047E070BD00BF1C6500000000A04100B583B08D
S315000047F002A9002341F8043D034B06209B69984714
S31500004800019803B05DF804FB1C6500000378C3B192
S31500004810012B14D18368454A017B93424AD9444A05
S3150000482093425CD9434A92F81C3103F0070399423C
S3150000483005D092F81C3161F3020382F81C31002086
S315000048407047426839498A4253D93B4B70B4F125C7
S315000048501D71197A364E41F004011972197A41F028
S3150000486008011972197A41F001011972197AF024B6
S3150000487041F00201B24219721C7105D91D71197AF3
S3150000488041F0100119721C712C4B2A499A4294BFAF
S3150000489001230223037391F81C2102F007029A42B6
S315000048A005D291F81C2163F3020281F81C21002035
S315000048B070BC7047204BF1221A711A7A6FF382028C
S315000048C01A721A7A6FF3C3021A721A7A6FF3000217
S315000048D01A721A7AF0206FF341021A721871164B87
S315000048E0F1221A711A7AF0206FF304121A721871F3
S315000048F098E713498A4205D80E4A037392F81C3189
S31500004900002070470D4B0B499A4294BF01230223A6
S31500004910037391F81C2102F007029A428FD291F894
S315000049201C2163F3020281F81C2188E7000E270789
S3150000493000C2EB0B00C0014000200040006889095E
S3150000494000B4C40400230370704700BF0378027BE1
S3150000495041F2360103F0E00342F0010210B4416077
S31500004960022443F0130341F204016FF34102846011
S315000049700370418002735DF8044B7047037843F07F
S3150000498003030370704700BF014B0360704700BF0D
S31500004990CC650000044B002103F1300243F8041BF0
S315000049A09342FBD1704700BFC802FE1F024B43F87B
S315000049B020100020704700BFC802FE1F08B56F4BCD
S315000049C0B3F84031D90700F1CB806C4BB3F84031D6
S315000049D09A0700F1B880694BB3F840315B0700F1E4
S315000049E0A580664BB3F84031180700F19280634BFF
S315000049F0B3F84031D9067FD4604BB3F84001C0F319
S31500004A00801000286CD15D4BB3F840311A065AD499
S31500004A105A4BB3F84031DB0548D4584BB3F8403114
S31500004A20980536D4554BB3F84031590524D4534B29
S31500004A30B3F840311A0512D4504BB3F84031DB04B9
S31500004A4000D408BD4E4BDB6A0BB10B2098474B4A8E
S31500004A50B2F8303143F48053A2F8303108BD484BE8
S31500004A609B6A0BB10A209847444AB2F8303143F4A6
S31500004A700063A2F83031DFE7414B5B6A0BB10920D6
S31500004A8098473E4AB2F8303143F48063A2F8303199
S31500004A90CDE73B4B1B6A0BB108209847374AB2F863
S31500004AA0303143F40073A2F83031BBE7344BDB6995
S31500004AB00BB107209847314AB2F8303143F480737E
S31500004AC0A2F83031A9E72E4B1B680BB1002098479E
S31500004AD02A4AB2F8303143F08003A2F8303197E722
S31500004AE0274B5B6803B19847244AB2F8303143F04C
S31500004AF04003A2F8303186E7214B9B690BB10620B3
S31500004B0098471E4AB2F8303143F01003A2F830310C
S31500004B1072E71B4B5B690BB105209847174AB2F841
S31500004B20303143F00803A2F8303160E7144B1B69BB
S31500004B300BB104209847114AB2F8303143F0040310
S31500004B40A2F830314DE70E4B9B680BB10220984717
S31500004B500A4AB2F8303143F00203A2F830313AE79C
S31500004B60074BDB680BB103209847044AB2F8303193
S31500004B7043F00103A2F8303127E700BF0060004090
S31500004B80C802FE1F0378452B1CD8264AD25CFF2A92
S31500004B9039D0F0B4244D46884778900902F01F04B6
S31500004BA055F8205012F020000ED001202B2B00FAD1
S31500004BB004F22AD0332B01D1012F2CD051B103207E
S31500004BC0F0BC7047012070473E44A41B012606FA3C
S31500004BD004F269B9EFF31083012181F310882C6880
S31500004BE024EA02042C6083F310880020F0BC70478E
S31500004BF0EFF3108386F310882C6814432C6083F33C
S31500004C001088F0BC704703207047072ED6D90134B0
S31500004C1000FA04F2D2E70029D1D1631C07FA03F2A5
S31500004C20D8E700BFF8690000406A00000121FFF7DD
S31500004C30A9BF00BF0021FFF7A5BF00BFA0F101007B
S31500004C400028FBD1704700BF2DE9D04301FB00F4DB
S31500004C50FFF7CCFD4FF47A71A4FB018900274FF0D2
S31500004C60FF364F4508BF46450E4BB3FBF0F007D362
S31500004C70B8FBF0F0800890B1BDE8D043FFF7DEBF87
S31500004C808000B4FBF0F0A0FB01018F4208BF864212
S31500004C90F1D24FF0FF30BDE8D043FFF7CFBFBDE8FC
S31500004CA0D08300BF00CA9A3B002808DB800000F1D1
S31500004CB0804000F5C64003686FF3104303607047F9
S31500004CC00B4A0C4B10B49B1A0B4CDB08236063B1E8
S31500004CD00A4800219388C3F3090340F8043B23687C
S31500004CE001318B4202F10802F4D85DF8044B70479B
S31500004CF00005000020050000F802FE1F00630040CA
S31500004D00012202E0C0E8432F43B1D0E84F3F13F041
S31500004D10FF0FF7D0BFF32F8F082070471846704754
S31500004D2000230370704700BF164B10B41C687CB19B
S31500004D30154B00681A681368984218BF002304D1FF
S31500004D400AE052F8041F814207D00133A342F8D18A
S31500004D5003205DF8044B704700230C4A12680121BA
S31500004D60134403E0C3E8401F0028F2D0D3E84F2FD6
S31500004D7012F0FF0FF6D0BFF32F8F08205DF8044B1B
S31500004D80704700BFFC02FE1F0003FE1F0403FE1F48
S31500004D900F4B10B41C687CB10E4B00681A68136880
S31500004DA0984218BF002304D109E052F8041F81423B
S31500004DB006D00133A342F8D15DF8044B70470023B7
S31500004DC0054A12680021D1545DF8044B704700BFB4
S31500004DD0FC02FE1F0003FE1F0403FE1FF0B5134E68
S31500004DE0134C1449144A154BDFF854C00E60A41B2B
S31500004DF0A4081460C3F800C08CB106EB84073546DE
S31500004E004FF0000E55F8040B3246002352F8041BEF
S31500004E10884205D001339C42F8D1BD42F2D1F0BDA3
S31500004E20BD420CF803E0EDD1F9E700BF2005000014
S31500004E30D00600000003FE1FFC02FE1F0403FE1F37
S31500004E40EC01FE1FEFF31081012383F31088124B50
S31500004E5033F8102092B22AB133F81020013A92B2F8
S31500004E6023F8102033F810309BB28BB90B4A10B4DC
S31500004E700B4CB2F8FE3334F8100043F4254323EA12
S31500004E800003A2F8FE3381F310885DF8044B7047E7
S31500004E9081F31088704700BF0803FE1F00E0014041
S31500004EA0546A000030B4EFF31081012383F31088B5
S31500004EB00C4A32F810309BB253B90B4C0B4DB4F878
S31500004EC0FE3335F8105043F425432B43A4F8FE3344
S31500004ED032F8103001339BB222F8103081F310887B
S31500004EE030BC70470803FE1F00E00140546A000012
S31500004EF0024B00221A805A809A8070470803FE1FD0
S31500004F0000BE704708B500F005F800F0E3F9FEE7CB
S31500004F10704700BF284AD2F8883043F4700370B552
S31500004F200020C2F88830FFF7F3FFFFF733FD234B6D
S31500004F301B689847FFF7DCFFFFF710FC204A214B60
S31500004F4021481B680024148098472049204B8B4237
S31500004F5004D0224603F8012D9942FBD11D481E4B71
S31500004F60984206D01D4A12F8011B03F8011B834222
S31500004F70F9D1FFF73BFC1A4B1A4D18600120FFF7D9
S31500004F80C7FF194B5B1B002B4FEAA30606DD002467
S31500004F90013455F8043B9847A642F9DCFFF71EFF9B
S31500004FA0FFF78EFE114B12481B6898470020BDE89C
S31500004FB0704000F01FB800BF00ED00E094640000F0
S31500004FC0AC02FE1FC8630000FC6A00009002FE1FD0
S31500004FD0E406FE1F5802FE1FC001FE1FFC6E000005
S31500004FE01003FE1FE401FE1FE801FE1FB06400006F
S31500004FF05C6A000000F042B882B04FF0C84300215E
S315000050000091009A1A7D61F300021A751A8DC8B1D3
S31500005010202161F30F221A851A8D4FF0C04142F00C
S3150000502080021A850A68009240F6FF72019204E037
S31500005030019A013A0192019A12B19A6A5106F7D57C
S3150000504002B070474FF0C04142F47F421A850A68A9
S3150000505000921A8D60F3C7121A850A68009240F60C
S31500005060FF72019205E0019A013A0192019A002A23
S31500005070E6D09A6A5206F6D402B07047F8B54A4AA4
S3150000508011684FF0C84400236FF386111020116099
S315000050902063A36123626363C4F80438227A63F34E
S315000050A004022272237DFF2243F00103237522614D
S315000050B0237D662243F0010323752261237D992215
S315000050C043F0010323752261237D43F00103237519
S315000050D001212320FFF7B8FD9F2323612269334B6B
S315000050E0D2B21A702169C9B259702069257DC0B241
S315000050F045F00105EF2A9870257503D000221A8025
S315000051009A70F8BD4029F9D11728F7D105212161F8
S315000051102669227D264B42F001023525227525613E
S3150000512022691A70227D42F001022275228D042026
S3150000513060F3030222852279502760F3030222716D
S315000051402761227D1F7842F001022275F2B247F0F4
S3150000515002061E700127276122611A782261227DCC
S315000051603A4322752061227D3A432275228861F3F3
S315000051700202228021612269227D3A43227525613D
S3150000518022691A70237D3B432375238843F040032D
S315000051902380A369DB07FCD40120FFF72DFF237DC5
S315000051A06FF300032375F8BD007004401403FE1F5F
S315000051B01803FE1F704700BFFFF7FCBF08B500F0DD
S315000051C057F8BDE8084000F0BFB800BF30B5104D35
S315000051D0104B2A6889B0B8204FF4806100930123F0
S315000051E0D418CDE90530CDE90113CDE903330A4AD8
S315000051F00A490B482C60002300F04CF908B909B0A5
S3150000520030BD0748002109B0BDE8304000F00CB8B9
S315000052106804FE1FE826FE1FBD510000DC6A000080
S315000052209003FE1F704700BF00BE7047F8B50C4FD5
S315000052300C4E0D49002405461C2301220B483C60F8
S31500005240347000F0B1F818B121460848FFF7ECFFBA
S31500005250FFF7BCFF00F04CF82846FFF7E3FFF8BD68
S315000052606804FE1F4804FE1FE86A00004C04FE1F87
S3150000527038B54FF0FF31144800F0EAF8F0B9134B97
S315000052801A7802B138BD124C01221A70FFF794FF4A
S315000052902368013B2360002BF4D00B4D04E0236808
S315000052A0013B2360002BEDD0284600F0E7F80028EC
S315000052B0F5D000212846FFF7B7FFF0E700210248A6
S315000052C0FFF7B2FFDBE700BF4C04FE1F4804FE1FDA
S315000052D06804FE1F08B572B600F0C2F9002008BDCA
S315000052E008B5FFF7C5FFBDE8084000F03FB800BFAE
S315000052F030B5104D104B2A6889B0B8204FF4806144
S3150000530000930123D418CDE90530CDE90113CDE989
S3150000531003330A4A0A490B482C60002300F0BAF806
S3150000532008B909B030BD0748002109B0BDE83040D2
S31500005330FFF77ABF6804FE1FE82AFE1FE15200004D
S31500005340E46E00006C04FE1F08B5064BD3E900545A
S315000053509E683368214628469847012000F038FBAE
S31500005360F7E700BF686A0000704700BF70B50C4ED3
S31500005370F56834682B68716820469847B1686B6891
S3150000538020469847AB68204698476B69054A2046F1
S31500005390002198470A20BDE8704000F019BB00BF05
S315000053A0A46E00005805FE1F08B11C2B01D00C206E
S315000053B07047F8B5EFF3108372B6DFF890E0DEF8C9
S315000053C000400134CEF8004083F310881C4C1D4B7E
S315000053D025681C6855B1A04218BF002302D105E01C
S315000053E0A04203D00133AB426469F9D105461746A2
S315000053F00E46EFF3108372B6DEF80020013ACEF8BF
S31500005400002083F3108800F015FBA54215D0EFF3BA
S3150000541005830D4A11680B4308D0EFF30583126824
S315000054201343B3F1F03F01D21320F8BD28463146AD
S315000054303A46BDE8F84000F03BB90C20F8BD00BF85
S315000054407C05FE1F6C05FE1FE001FE1F2806FE1FE1
S3150000545018B1084B02689A4201D00C20704739B146
S31500005460EFF30583044A1268134301D00420704702
S3150000547000F048B9414D4553E001FE1F18B10268DE
S31500005480034B9A4201D00C20704700F081B900BF4F
S31500005490414D45532DE9F04F85B00EAD129C019458
S315000054A0139C009495E82007149C08B1B82C03D0EF
S315000054B00E2005B0BDE8F08FEFF3108472B6DFF86A
S315000054C014E1DEF800600136CEF8006084F310883F
S315000054D03D4E3E4C36680296246836B3A04224D030
S315000054E008F1FF362E4400278B460393E1688D4270
S315000054F03ED323699D423BD24FF0010C00258E42DC
S3150000550007F1010705D321698E423CBF4FF0010C1C
S3150000551000250299D4F888408F4204D0A04202D0D8
S31500005520BCF1010FE2D1039B59460746029316468A
S315000055308B46EFF3108372B6DEF80020013ACEF800
S31500005540002083F3108800F075FAA742B0D06DB141
S3150000555066B1B8F1C70F0ED9B9F11F0F0DD8D145F5
S315000055600DD3009B012B0CD91020A2E70320A0E746
S315000055704FF0000CC3E705209BE70F2099E71820A2
S3150000558097E7EFF30583124A11680B4308D0EFF350
S31500005590058312681343B3F1F03F01D2132088E765
S315000055A0019B1293009B1393029B0E953846594616
S315000055B03246CDF83C80CDF84090CDF844A005B0F9
S315000055C0BDE8F04F00F00EB92006FE1F1806FE1FBC
S315000055D0E001FE1F2806FE1F2DE9F04700F0A0F9A6
S315000055E0DFF868A0DFF86890DFF86880104F114E8A
S315000055F0114D124C00F054FBDFF85CC0DFF85CE0A4
S315000056000F481049104A0023CAF80030C9F8003084
S31500005610C8F80030CCF80030CEF800303B6033607C
S315000056202B60236003600B601360BDE8F08700BF4A
S315000056308005FE1F8405FE1F7805FE1F7005FE1FF0
S315000056408C05FE1F6405FE1F6005FE1F6C05FE1F10
S315000056507C05FE1F8805FE1F6805FE1F5C05FE1FF4
S3150000566010B50E4C236813F10F3F0AD04FF0F033FC
S31500005670236000F093FBFFF7AFFF094A136801337D
S315000056801360084A4FF0F03310682360FFF7CEFD31
S3150000569000232360BDE8104000F0C6BBE001FE1FFA
S315000056A02806FE1F7405FE1F704700BF704700BF27
S315000056B070B504460E46154600211C2200F024FE55
S315000056C06660A560EFF3108072B60B4A0B4913684B
S315000056D021600B495BB109688D698C616C61A561BC
S315000056E061610133136080F31088002070BD64612E
S315000056F0A4610C60F5E700BF7C05FE1F414D4553D4
S315000057006C05FE1FF8B5EFF3108272B68368002BA6
S315000057102ED119B982F310880D20F8BD194B1C68DB
S31500005720002CF7D1184C05692468184FD4F8B460DA
S31500005730E0660136A766C4F8B460FDB1C6682667A0
S31500005740776F67673C6774671E68013501364FF0EF
S31500005750060E012705611E60E164C4F830E0A76308
S3150000576082F31088204600F0F9F9D4F88400F8BDD9
S31500005770013B836082F310880020F8BDC460246773
S315000057806467E1E72806FE1F2C06FE1F096100007C
S3150000579038B5EFF3108472B60369D3B15A1EC168E7
S315000057A015D00B6F4D6FC3605D672B6703460C48C2
S315000057B01A6103680022013303608A66C1F88420F7
S315000057C084F31088084600F053F9002038BDC26003
S315000057D0ECE783680133836084F31088002038BDCA
S315000057E02806FE1F2DE9F84FDDF828800B9D0C9C3E
S315000057F00E9E07468B469246EF212A46404699461C
S3150000580000F082FD0021B822384600F07DFD0D9B98
S31500005810C7F828B06A1E424420219C42C7F844A01B
S31500005820C7F84890C7F80C807D613A61FC62C7F8FA
S315000058309840BE61FE61C7F8A01057D00023FB63F5
S31500005840C7F89C3003222E4BBF653A637B6538460A
S315000058502C4900F0CBFBEFF3108572B62A482B4A91
S3150000586003683A602A4AE3B9C7F88870C7F88C70AB
